{
  "contractName": "Exchange",
  "abi": [
    {
      "inputs": [
        {
          "internalType": "address",
          "name": "account",
          "type": "address"
        },
        {
          "internalType": "uint256",
          "name": "percent",
          "type": "uint256"
        }
      ],
      "stateMutability": "nonpayable",
      "type": "constructor"
    },
    {
      "anonymous": false,
      "inputs": [
        {
          "indexed": false,
          "internalType": "uint256",
          "name": "id",
          "type": "uint256"
        },
        {
          "indexed": false,
          "internalType": "address",
          "name": "user",
          "type": "address"
        },
        {
          "indexed": false,
          "internalType": "address",
          "name": "tokenGet",
          "type": "address"
        },
        {
          "indexed": false,
          "internalType": "uint256",
          "name": "amountGet",
          "type": "uint256"
        },
        {
          "indexed": false,
          "internalType": "address",
          "name": "tokenGive",
          "type": "address"
        },
        {
          "indexed": false,
          "internalType": "uint256",
          "name": "amountGive",
          "type": "uint256"
        },
        {
          "indexed": false,
          "internalType": "uint256",
          "name": "timestamp",
          "type": "uint256"
        }
      ],
      "name": "Cancel",
      "type": "event"
    },
    {
      "anonymous": false,
      "inputs": [
        {
          "indexed": false,
          "internalType": "address",
          "name": "token",
          "type": "address"
        },
        {
          "indexed": false,
          "internalType": "address",
          "name": "user",
          "type": "address"
        },
        {
          "indexed": false,
          "internalType": "uint256",
          "name": "amount",
          "type": "uint256"
        },
        {
          "indexed": false,
          "internalType": "uint256",
          "name": "balance",
          "type": "uint256"
        }
      ],
      "name": "Deposit",
      "type": "event"
    },
    {
      "anonymous": false,
      "inputs": [
        {
          "indexed": false,
          "internalType": "uint256",
          "name": "id",
          "type": "uint256"
        },
        {
          "indexed": false,
          "internalType": "address",
          "name": "user",
          "type": "address"
        },
        {
          "indexed": false,
          "internalType": "address",
          "name": "tokenGet",
          "type": "address"
        },
        {
          "indexed": false,
          "internalType": "uint256",
          "name": "amountGet",
          "type": "uint256"
        },
        {
          "indexed": false,
          "internalType": "address",
          "name": "tokenGive",
          "type": "address"
        },
        {
          "indexed": false,
          "internalType": "uint256",
          "name": "amountGive",
          "type": "uint256"
        },
        {
          "indexed": false,
          "internalType": "uint256",
          "name": "timestamp",
          "type": "uint256"
        }
      ],
      "name": "Fill",
      "type": "event"
    },
    {
      "anonymous": false,
      "inputs": [
        {
          "indexed": false,
          "internalType": "uint256",
          "name": "id",
          "type": "uint256"
        },
        {
          "indexed": false,
          "internalType": "address",
          "name": "user",
          "type": "address"
        },
        {
          "indexed": false,
          "internalType": "address",
          "name": "tokenGet",
          "type": "address"
        },
        {
          "indexed": false,
          "internalType": "uint256",
          "name": "amountGet",
          "type": "uint256"
        },
        {
          "indexed": false,
          "internalType": "address",
          "name": "tokenGive",
          "type": "address"
        },
        {
          "indexed": false,
          "internalType": "uint256",
          "name": "amountGive",
          "type": "uint256"
        },
        {
          "indexed": false,
          "internalType": "uint256",
          "name": "timestamp",
          "type": "uint256"
        }
      ],
      "name": "Order",
      "type": "event"
    },
    {
      "anonymous": false,
      "inputs": [
        {
          "indexed": false,
          "internalType": "address",
          "name": "token",
          "type": "address"
        },
        {
          "indexed": false,
          "internalType": "address",
          "name": "user",
          "type": "address"
        },
        {
          "indexed": false,
          "internalType": "uint256",
          "name": "amount",
          "type": "uint256"
        },
        {
          "indexed": false,
          "internalType": "uint256",
          "name": "balance",
          "type": "uint256"
        }
      ],
      "name": "Withdraw",
      "type": "event"
    },
    {
      "inputs": [],
      "name": "feeAccount",
      "outputs": [
        {
          "internalType": "address",
          "name": "",
          "type": "address"
        }
      ],
      "stateMutability": "view",
      "type": "function",
      "constant": true
    },
    {
      "inputs": [],
      "name": "feePercent",
      "outputs": [
        {
          "internalType": "uint256",
          "name": "",
          "type": "uint256"
        }
      ],
      "stateMutability": "view",
      "type": "function",
      "constant": true
    },
    {
      "inputs": [],
      "name": "orderCount",
      "outputs": [
        {
          "internalType": "uint256",
          "name": "",
          "type": "uint256"
        }
      ],
      "stateMutability": "view",
      "type": "function",
      "constant": true
    },
    {
      "inputs": [
        {
          "internalType": "uint256",
          "name": "",
          "type": "uint256"
        }
      ],
      "name": "orders",
      "outputs": [
        {
          "internalType": "uint256",
          "name": "id",
          "type": "uint256"
        },
        {
          "internalType": "address",
          "name": "user",
          "type": "address"
        },
        {
          "internalType": "address",
          "name": "tokenGet",
          "type": "address"
        },
        {
          "internalType": "uint256",
          "name": "amountGet",
          "type": "uint256"
        },
        {
          "internalType": "address",
          "name": "tokenGive",
          "type": "address"
        },
        {
          "internalType": "uint256",
          "name": "amountGive",
          "type": "uint256"
        },
        {
          "internalType": "uint256",
          "name": "timestamp",
          "type": "uint256"
        },
        {
          "internalType": "enum OrderStateEnum",
          "name": "orderState",
          "type": "uint8"
        }
      ],
      "stateMutability": "view",
      "type": "function",
      "constant": true
    },
    {
      "inputs": [
        {
          "internalType": "address",
          "name": "",
          "type": "address"
        },
        {
          "internalType": "address",
          "name": "",
          "type": "address"
        }
      ],
      "name": "tokens",
      "outputs": [
        {
          "internalType": "uint256",
          "name": "",
          "type": "uint256"
        }
      ],
      "stateMutability": "view",
      "type": "function",
      "constant": true
    },
    {
      "inputs": [],
      "name": "depositEther",
      "outputs": [],
      "stateMutability": "payable",
      "type": "function",
      "payable": true
    },
    {
      "inputs": [
        {
          "internalType": "address",
          "name": "_token",
          "type": "address"
        },
        {
          "internalType": "uint256",
          "name": "_amount",
          "type": "uint256"
        }
      ],
      "name": "depositToken",
      "outputs": [],
      "stateMutability": "nonpayable",
      "type": "function"
    },
    {
      "inputs": [
        {
          "internalType": "uint256",
          "name": "_amount",
          "type": "uint256"
        }
      ],
      "name": "withdrawEther",
      "outputs": [],
      "stateMutability": "nonpayable",
      "type": "function"
    },
    {
      "inputs": [
        {
          "internalType": "address",
          "name": "_token",
          "type": "address"
        },
        {
          "internalType": "uint256",
          "name": "_amount",
          "type": "uint256"
        }
      ],
      "name": "withdrawToken",
      "outputs": [],
      "stateMutability": "nonpayable",
      "type": "function"
    },
    {
      "inputs": [
        {
          "internalType": "address",
          "name": "_token",
          "type": "address"
        },
        {
          "internalType": "address",
          "name": "_user",
          "type": "address"
        }
      ],
      "name": "balanceOf",
      "outputs": [
        {
          "internalType": "uint256",
          "name": "",
          "type": "uint256"
        }
      ],
      "stateMutability": "view",
      "type": "function",
      "constant": true
    },
    {
      "inputs": [
        {
          "internalType": "address",
          "name": "_tokenGet",
          "type": "address"
        },
        {
          "internalType": "uint256",
          "name": "_amountGet",
          "type": "uint256"
        },
        {
          "internalType": "address",
          "name": "_tokenGive",
          "type": "address"
        },
        {
          "internalType": "uint256",
          "name": "_amountGive",
          "type": "uint256"
        }
      ],
      "name": "makeOrder",
      "outputs": [],
      "stateMutability": "nonpayable",
      "type": "function"
    },
    {
      "inputs": [
        {
          "internalType": "uint256",
          "name": "_id",
          "type": "uint256"
        }
      ],
      "name": "cancelOrder",
      "outputs": [],
      "stateMutability": "nonpayable",
      "type": "function"
    },
    {
      "inputs": [
        {
          "internalType": "uint256",
          "name": "_id",
          "type": "uint256"
        }
      ],
      "name": "fillOrder",
      "outputs": [],
      "stateMutability": "nonpayable",
      "type": "function"
    },
    {
      "inputs": [
        {
          "internalType": "uint256",
          "name": "id",
          "type": "uint256"
        }
      ],
      "name": "getOrders",
      "outputs": [
        {
          "components": [
            {
              "internalType": "uint256",
              "name": "id",
              "type": "uint256"
            },
            {
              "internalType": "address",
              "name": "user",
              "type": "address"
            },
            {
              "internalType": "address",
              "name": "tokenGet",
              "type": "address"
            },
            {
              "internalType": "uint256",
              "name": "amountGet",
              "type": "uint256"
            },
            {
              "internalType": "address",
              "name": "tokenGive",
              "type": "address"
            },
            {
              "internalType": "uint256",
              "name": "amountGive",
              "type": "uint256"
            },
            {
              "internalType": "uint256",
              "name": "timestamp",
              "type": "uint256"
            },
            {
              "internalType": "enum OrderStateEnum",
              "name": "orderState",
              "type": "uint8"
            }
          ],
          "internalType": "struct _Order",
          "name": "",
          "type": "tuple"
        }
      ],
      "stateMutability": "view",
      "type": "function",
      "constant": true
    }
  ],
  "bytecode": "0x60806040523480156200001157600080fd5b5060405162002c5c38038062002c5c83398181016040528101906200003791906200012b565b816000806101000a81548173ffffffffffffffffffffffffffffffffffffffff021916908373ffffffffffffffffffffffffffffffffffffffff16021790555080600181905550505062000172565b600080fd5b600073ffffffffffffffffffffffffffffffffffffffff82169050919050565b6000620000b8826200008b565b9050919050565b620000ca81620000ab565b8114620000d657600080fd5b50565b600081519050620000ea81620000bf565b92915050565b6000819050919050565b6200010581620000f0565b81146200011157600080fd5b50565b6000815190506200012581620000fa565b92915050565b6000806040838503121562000145576200014462000086565b5b60006200015585828601620000d9565b9250506020620001688582860162000114565b9150509250929050565b612ada80620001826000396000f3fe6080604052600436106100fa576000357c01000000000000000000000000000000000000000000000000000000009004806367b830ad1161009c5780639a5c90aa116100765780639a5c90aa146102a85780639e281a98146102d1578063a85c38ef146102fa578063f7888aec1461033e576100fa565b806367b830ad1461024a5780637fd6f15c1461027357806398ea5fca1461029e576100fa565b80633bed33ce116100d85780633bed33ce14610190578063508493bc146101b9578063514fcac7146101f657806365e17c9d1461021f576100fa565b806305e0141d146100ff5780632453ffa81461013c578063338b5dea14610167575b600080fd5b34801561010b57600080fd5b50610126600480360381019061012191906120d5565b61037b565b604051610133919061226b565b60405180910390f35b34801561014857600080fd5b5061015161050e565b60405161015e9190612296565b60405180910390f35b34801561017357600080fd5b5061018e600480360381019061018991906122dd565b610514565b005b34801561019c57600080fd5b506101b760048036038101906101b291906120d5565b6107b6565b005b3480156101c557600080fd5b506101e060048036038101906101db919061231d565b610a52565b6040516101ed9190612296565b60405180910390f35b34801561020257600080fd5b5061021d600480360381019061021891906120d5565b610a77565b005b34801561022b57600080fd5b50610234610c95565b604051610241919061236c565b60405180910390f35b34801561025657600080fd5b50610271600480360381019061026c91906120d5565b610cb9565b005b34801561027f57600080fd5b506102886115b1565b6040516102959190612296565b60405180910390f35b6102a66115b7565b005b3480156102b457600080fd5b506102cf60048036038101906102ca9190612387565b611782565b005b3480156102dd57600080fd5b506102f860048036038101906102f391906122dd565b611a0b565b005b34801561030657600080fd5b50610321600480360381019061031c91906120d5565b611d3c565b6040516103359897969594939291906123fd565b60405180910390f35b34801561034a57600080fd5b506103656004803603810190610360919061231d565b611df1565b6040516103729190612296565b60405180910390f35b610383612001565b6003600083815260200190815260200160002060405180610100016040529081600082015481526020016001820160009054906101000a900473ffffffffffffffffffffffffffffffffffffffff1673ffffffffffffffffffffffffffffffffffffffff1673ffffffffffffffffffffffffffffffffffffffff1681526020016002820160009054906101000a900473ffffffffffffffffffffffffffffffffffffffff1673ffffffffffffffffffffffffffffffffffffffff1673ffffffffffffffffffffffffffffffffffffffff168152602001600382015481526020016004820160009054906101000a900473ffffffffffffffffffffffffffffffffffffffff1673ffffffffffffffffffffffffffffffffffffffff1673ffffffffffffffffffffffffffffffffffffffff16815260200160058201548152602001600682015481526020016007820160009054906101000a900460ff1660028111156104f1576104f0612152565b5b600281111561050357610502612152565b5b815250509050919050565b60045481565b600073ffffffffffffffffffffffffffffffffffffffff168273ffffffffffffffffffffffffffffffffffffffff160361054d57600080fd5b8173ffffffffffffffffffffffffffffffffffffffff166323b872dd3330846040518463ffffffff167c01000000000000000000000000000000000000000000000000000000000281526004016105a69392919061247b565b6020604051808303816000875af11580156105c5573d6000803e3d6000fd5b505050506040513d601f19601f820116820180604052508101906105e991906124ea565b5061067981600260008573ffffffffffffffffffffffffffffffffffffffff1673ffffffffffffffffffffffffffffffffffffffff16815260200190815260200160002060003373ffffffffffffffffffffffffffffffffffffffff1673ffffffffffffffffffffffffffffffffffffffff16815260200190815260200160002054611e7890919063ffffffff16565b600260008473ffffffffffffffffffffffffffffffffffffffff1673ffffffffffffffffffffffffffffffffffffffff16815260200190815260200160002060003373ffffffffffffffffffffffffffffffffffffffff1673ffffffffffffffffffffffffffffffffffffffff168152602001908152602001600020819055507fdcbc1c05240f31ff3ad067ef1ee35ce4997762752e3a095284754544f4c709d7823383600260008773ffffffffffffffffffffffffffffffffffffffff1673ffffffffffffffffffffffffffffffffffffffff16815260200190815260200160002060003373ffffffffffffffffffffffffffffffffffffffff1673ffffffffffffffffffffffffffffffffffffffff168152602001908152602001600020546040516107aa9493929190612517565b60405180910390a15050565b80600260008073ffffffffffffffffffffffffffffffffffffffff1673ffffffffffffffffffffffffffffffffffffffff16815260200190815260200160002060003373ffffffffffffffffffffffffffffffffffffffff1673ffffffffffffffffffffffffffffffffffffffff16815260200190815260200160002054101561083f57600080fd5b6108ce81600260008073ffffffffffffffffffffffffffffffffffffffff1673ffffffffffffffffffffffffffffffffffffffff16815260200190815260200160002060003373ffffffffffffffffffffffffffffffffffffffff1673ffffffffffffffffffffffffffffffffffffffff16815260200190815260200160002054611ed690919063ffffffff16565b600260008073ffffffffffffffffffffffffffffffffffffffff1673ffffffffffffffffffffffffffffffffffffffff16815260200190815260200160002060003373ffffffffffffffffffffffffffffffffffffffff1673ffffffffffffffffffffffffffffffffffffffff168152602001908152602001600020819055503373ffffffffffffffffffffffffffffffffffffffff166108fc829081150290604051600060405180830381858888f19350505050158015610994573d6000803e3d6000fd5b507ff341246adaac6f497bc2a656f546ab9e182111d630394f0c57c710a59a2cb56760003383600260008073ffffffffffffffffffffffffffffffffffffffff1673ffffffffffffffffffffffffffffffffffffffff16815260200190815260200160002060003373ffffffffffffffffffffffffffffffffffffffff1673ffffffffffffffffffffffffffffffffffffffff16815260200190815260200160002054604051610a479493929190612517565b60405180910390a150565b6002602052816000526040600020602052806000526040600020600091509150505481565b60016003600083815260200190815260200160002060070160006101000a81548160ff02191690836002811115610ab157610ab0612152565b5b021790555060006003600083815260200190815260200160002060405180610100016040529081600082015481526020016001820160009054906101000a900473ffffffffffffffffffffffffffffffffffffffff1673ffffffffffffffffffffffffffffffffffffffff1673ffffffffffffffffffffffffffffffffffffffff1681526020016002820160009054906101000a900473ffffffffffffffffffffffffffffffffffffffff1673ffffffffffffffffffffffffffffffffffffffff1673ffffffffffffffffffffffffffffffffffffffff168152602001600382015481526020016004820160009054906101000a900473ffffffffffffffffffffffffffffffffffffffff1673ffffffffffffffffffffffffffffffffffffffff1673ffffffffffffffffffffffffffffffffffffffff16815260200160058201548152602001600682015481526020016007820160009054906101000a900460ff166002811115610c2657610c25612152565b5b6002811115610c3857610c37612152565b5b8152505090507f77de1da0be5f2d3b110d05c6694e5c4ff2d9da7cd23d84353ecf78c7b5acec6182338360400151846060015185608001518660a0015142604051610c89979695949392919061255c565b60405180910390a15050565b60008054906101000a900473ffffffffffffffffffffffffffffffffffffffff1681565b60006003600083815260200190815260200160002060405180610100016040529081600082015481526020016001820160009054906101000a900473ffffffffffffffffffffffffffffffffffffffff1673ffffffffffffffffffffffffffffffffffffffff1673ffffffffffffffffffffffffffffffffffffffff1681526020016002820160009054906101000a900473ffffffffffffffffffffffffffffffffffffffff1673ffffffffffffffffffffffffffffffffffffffff1673ffffffffffffffffffffffffffffffffffffffff168152602001600382015481526020016004820160009054906101000a900473ffffffffffffffffffffffffffffffffffffffff1673ffffffffffffffffffffffffffffffffffffffff1673ffffffffffffffffffffffffffffffffffffffff16815260200160058201548152602001600682015481526020016007820160009054906101000a900460ff166002811115610e2957610e28612152565b5b6002811115610e3b57610e3a612152565b5b8152505090506000610e6f6064610e616001548560600151611f2f90919063ffffffff16565b611fa990919063ffffffff16565b90508160a00151610e8883608001518460200151611df1565b1015610ec9576040517f08c379a0000000000000000000000000000000000000000000000000000000008152600401610ec09061264e565b60405180910390fd5b610ee0818360600151611e7890919063ffffffff16565b610eee836040015133611df1565b1015610f2f576040517f08c379a0000000000000000000000000000000000000000000000000000000008152600401610f26906126e0565b60405180910390fd5b610fd8610f49828460600151611e7890919063ffffffff16565b60026000856040015173ffffffffffffffffffffffffffffffffffffffff1673ffffffffffffffffffffffffffffffffffffffff16815260200190815260200160002060003373ffffffffffffffffffffffffffffffffffffffff1673ffffffffffffffffffffffffffffffffffffffff16815260200190815260200160002054611ed690919063ffffffff16565b60026000846040015173ffffffffffffffffffffffffffffffffffffffff1673ffffffffffffffffffffffffffffffffffffffff16815260200190815260200160002060003373ffffffffffffffffffffffffffffffffffffffff1673ffffffffffffffffffffffffffffffffffffffff168152602001908152602001600020819055506110f7826060015160026000856040015173ffffffffffffffffffffffffffffffffffffffff1673ffffffffffffffffffffffffffffffffffffffff1681526020019081526020016000206000856020015173ffffffffffffffffffffffffffffffffffffffff1673ffffffffffffffffffffffffffffffffffffffff16815260200190815260200160002054611e7890919063ffffffff16565b60026000846040015173ffffffffffffffffffffffffffffffffffffffff1673ffffffffffffffffffffffffffffffffffffffff1681526020019081526020016000206000846020015173ffffffffffffffffffffffffffffffffffffffff1673ffffffffffffffffffffffffffffffffffffffff168152602001908152602001600020819055506112338160026000856040015173ffffffffffffffffffffffffffffffffffffffff1673ffffffffffffffffffffffffffffffffffffffff16815260200190815260200160002060008060009054906101000a900473ffffffffffffffffffffffffffffffffffffffff1673ffffffffffffffffffffffffffffffffffffffff1673ffffffffffffffffffffffffffffffffffffffff16815260200190815260200160002054611e7890919063ffffffff16565b60026000846040015173ffffffffffffffffffffffffffffffffffffffff1673ffffffffffffffffffffffffffffffffffffffff16815260200190815260200160002060008060009054906101000a900473ffffffffffffffffffffffffffffffffffffffff1673ffffffffffffffffffffffffffffffffffffffff1673ffffffffffffffffffffffffffffffffffffffff1681526020019081526020016000208190555061136f8260a0015160026000856080015173ffffffffffffffffffffffffffffffffffffffff1673ffffffffffffffffffffffffffffffffffffffff16815260200190815260200160002060003373ffffffffffffffffffffffffffffffffffffffff1673ffffffffffffffffffffffffffffffffffffffff16815260200190815260200160002054611e7890919063ffffffff16565b60026000846080015173ffffffffffffffffffffffffffffffffffffffff1673ffffffffffffffffffffffffffffffffffffffff16815260200190815260200160002060003373ffffffffffffffffffffffffffffffffffffffff1673ffffffffffffffffffffffffffffffffffffffff1681526020019081526020016000208190555061148e8260a0015160026000856080015173ffffffffffffffffffffffffffffffffffffffff1673ffffffffffffffffffffffffffffffffffffffff1681526020019081526020016000206000856020015173ffffffffffffffffffffffffffffffffffffffff1673ffffffffffffffffffffffffffffffffffffffff16815260200190815260200160002054611ed690919063ffffffff16565b60026000846080015173ffffffffffffffffffffffffffffffffffffffff1673ffffffffffffffffffffffffffffffffffffffff1681526020019081526020016000206000846020015173ffffffffffffffffffffffffffffffffffffffff1673ffffffffffffffffffffffffffffffffffffffff1681526020019081526020016000208190555060026003600085815260200190815260200160002060070160006101000a81548160ff021916908360028111156115505761154f612152565b5b02179055507f7345db3ed37137e433c949ad2e8739431edba418361dedf5c463f3e8853c7b688383602001518460400151856060015186608001518760a00151426040516115a4979695949392919061255c565b60405180910390a1505050565b60015481565b61164634600260008073ffffffffffffffffffffffffffffffffffffffff1673ffffffffffffffffffffffffffffffffffffffff16815260200190815260200160002060003373ffffffffffffffffffffffffffffffffffffffff1673ffffffffffffffffffffffffffffffffffffffff16815260200190815260200160002054611e7890919063ffffffff16565b600260008073ffffffffffffffffffffffffffffffffffffffff1673ffffffffffffffffffffffffffffffffffffffff16815260200190815260200160002060003373ffffffffffffffffffffffffffffffffffffffff1673ffffffffffffffffffffffffffffffffffffffff168152602001908152602001600020819055507fdcbc1c05240f31ff3ad067ef1ee35ce4997762752e3a095284754544f4c709d760003334600260008073ffffffffffffffffffffffffffffffffffffffff1673ffffffffffffffffffffffffffffffffffffffff16815260200190815260200160002060003373ffffffffffffffffffffffffffffffffffffffff1673ffffffffffffffffffffffffffffffffffffffff168152602001908152602001600020546040516117789493929190612517565b60405180910390a1565b8061178d8333611df1565b10156117ce576040517f08c379a00000000000000000000000000000000000000000000000000000000081526004016117c59061274c565b60405180910390fd5b6117e46001600454611e7890919063ffffffff16565b60048190555060405180610100016040528060045481526020013373ffffffffffffffffffffffffffffffffffffffff1681526020018573ffffffffffffffffffffffffffffffffffffffff1681526020018481526020018373ffffffffffffffffffffffffffffffffffffffff1681526020018281526020014281526020016000600281111561187857611877612152565b5b8152506003600060045481526020019081526020016000206000820151816000015560208201518160010160006101000a81548173ffffffffffffffffffffffffffffffffffffffff021916908373ffffffffffffffffffffffffffffffffffffffff16021790555060408201518160020160006101000a81548173ffffffffffffffffffffffffffffffffffffffff021916908373ffffffffffffffffffffffffffffffffffffffff1602179055506060820151816003015560808201518160040160006101000a81548173ffffffffffffffffffffffffffffffffffffffff021916908373ffffffffffffffffffffffffffffffffffffffff16021790555060a0820151816005015560c0820151816006015560e08201518160070160006101000a81548160ff021916908360028111156119b8576119b7612152565b5b02179055509050507f9d33853d43e3607b4cc01fdc78338ff2dca6fef7db9232dae6d3eb55fbc3b1096004543386868686426040516119fd979695949392919061255c565b60405180910390a150505050565b80600260008473ffffffffffffffffffffffffffffffffffffffff1673ffffffffffffffffffffffffffffffffffffffff16815260200190815260200160002060003373ffffffffffffffffffffffffffffffffffffffff1673ffffffffffffffffffffffffffffffffffffffff168152602001908152602001600020541015611a9457600080fd5b600073ffffffffffffffffffffffffffffffffffffffff168273ffffffffffffffffffffffffffffffffffffffff1603611acd57600080fd5b611b5c81600260008573ffffffffffffffffffffffffffffffffffffffff1673ffffffffffffffffffffffffffffffffffffffff16815260200190815260200160002060003373ffffffffffffffffffffffffffffffffffffffff1673ffffffffffffffffffffffffffffffffffffffff16815260200190815260200160002054611ed690919063ffffffff16565b600260008473ffffffffffffffffffffffffffffffffffffffff1673ffffffffffffffffffffffffffffffffffffffff16815260200190815260200160002060003373ffffffffffffffffffffffffffffffffffffffff1673ffffffffffffffffffffffffffffffffffffffff168152602001908152602001600020819055508173ffffffffffffffffffffffffffffffffffffffff1663a9059cbb33836040518363ffffffff167c0100000000000000000000000000000000000000000000000000000000028152600401611c3392919061276c565b6020604051808303816000875af1158015611c52573d6000803e3d6000fd5b505050506040513d601f19601f82011682018060405250810190611c7691906124ea565b611c7f57600080fd5b7ff341246adaac6f497bc2a656f546ab9e182111d630394f0c57c710a59a2cb567823383600260008773ffffffffffffffffffffffffffffffffffffffff1673ffffffffffffffffffffffffffffffffffffffff16815260200190815260200160002060003373ffffffffffffffffffffffffffffffffffffffff1673ffffffffffffffffffffffffffffffffffffffff16815260200190815260200160002054604051611d309493929190612517565b60405180910390a15050565b60036020528060005260406000206000915090508060000154908060010160009054906101000a900473ffffffffffffffffffffffffffffffffffffffff16908060020160009054906101000a900473ffffffffffffffffffffffffffffffffffffffff16908060030154908060040160009054906101000a900473ffffffffffffffffffffffffffffffffffffffff16908060050154908060060154908060070160009054906101000a900460ff16905088565b6000600260008473ffffffffffffffffffffffffffffffffffffffff1673ffffffffffffffffffffffffffffffffffffffff16815260200190815260200160002060008373ffffffffffffffffffffffffffffffffffffffff1673ffffffffffffffffffffffffffffffffffffffff16815260200190815260200160002054905092915050565b6000808284611e8791906127c4565b905083811015611ecc576040517f08c379a0000000000000000000000000000000000000000000000000000000008152600401611ec390612844565b60405180910390fd5b8091505092915050565b600082821115611f1b576040517f08c379a0000000000000000000000000000000000000000000000000000000008152600401611f12906128b0565b60405180910390fd5b8183611f2791906128d0565b905092915050565b6000808303611f415760009050611fa3565b60008284611f4f9190612904565b9050828482611f5e9190612975565b14611f9e576040517f08c379a0000000000000000000000000000000000000000000000000000000008152600401611f9590612a18565b60405180910390fd5b809150505b92915050565b6000808211611fed576040517f08c379a0000000000000000000000000000000000000000000000000000000008152600401611fe490612a84565b60405180910390fd5b8183611ff99190612975565b905092915050565b60405180610100016040528060008152602001600073ffffffffffffffffffffffffffffffffffffffff168152602001600073ffffffffffffffffffffffffffffffffffffffff16815260200160008152602001600073ffffffffffffffffffffffffffffffffffffffff16815260200160008152602001600081526020016000600281111561209457612093612152565b5b81525090565b600080fd5b6000819050919050565b6120b28161209f565b81146120bd57600080fd5b50565b6000813590506120cf816120a9565b92915050565b6000602082840312156120eb576120ea61209a565b5b60006120f9848285016120c0565b91505092915050565b61210b8161209f565b82525050565b600073ffffffffffffffffffffffffffffffffffffffff82169050919050565b600061213c82612111565b9050919050565b61214c81612131565b82525050565b7f4e487b7100000000000000000000000000000000000000000000000000000000600052602160045260246000fd5b6003811061219257612191612152565b5b50565b60008190506121a382612181565b919050565b60006121b382612195565b9050919050565b6121c3816121a8565b82525050565b610100820160008201516121e06000850182612102565b5060208201516121f36020850182612143565b5060408201516122066040850182612143565b5060608201516122196060850182612102565b50608082015161222c6080850182612143565b5060a082015161223f60a0850182612102565b5060c082015161225260c0850182612102565b5060e082015161226560e08501826121ba565b50505050565b60006101008201905061228160008301846121c9565b92915050565b6122908161209f565b82525050565b60006020820190506122ab6000830184612287565b92915050565b6122ba81612131565b81146122c557600080fd5b50565b6000813590506122d7816122b1565b92915050565b600080604083850312156122f4576122f361209a565b5b6000612302858286016122c8565b9250506020612313858286016120c0565b9150509250929050565b600080604083850312156123345761233361209a565b5b6000612342858286016122c8565b9250506020612353858286016122c8565b9150509250929050565b61236681612131565b82525050565b6000602082019050612381600083018461235d565b92915050565b600080600080608085870312156123a1576123a061209a565b5b60006123af878288016122c8565b94505060206123c0878288016120c0565b93505060406123d1878288016122c8565b92505060606123e2878288016120c0565b91505092959194509250565b6123f7816121a8565b82525050565b600061010082019050612413600083018b612287565b612420602083018a61235d565b61242d604083018961235d565b61243a6060830188612287565b612447608083018761235d565b61245460a0830186612287565b61246160c0830185612287565b61246e60e08301846123ee565b9998505050505050505050565b6000606082019050612490600083018661235d565b61249d602083018561235d565b6124aa6040830184612287565b949350505050565b60008115159050919050565b6124c7816124b2565b81146124d257600080fd5b50565b6000815190506124e4816124be565b92915050565b600060208284031215612500576124ff61209a565b5b600061250e848285016124d5565b91505092915050565b600060808201905061252c600083018761235d565b612539602083018661235d565b6125466040830185612287565b6125536060830184612287565b95945050505050565b600060e082019050612571600083018a612287565b61257e602083018961235d565b61258b604083018861235d565b6125986060830187612287565b6125a5608083018661235d565b6125b260a0830185612287565b6125bf60c0830184612287565b98975050505050505050565b600082825260208201905092915050565b7fe5889be5bbbae8aea2e58d95e79a84e794a8e688b7e79a84e4bd99e9a29de4b860008201527f8de8b6b300000000000000000000000000000000000000000000000000000000602082015250565b60006126386024836125cb565b9150612643826125dc565b604082019050919050565b600060208201905081810360008301526126678161262b565b9050919050565b7fe5a1abe58585e8aea2e58d95e79a84e794a8e688b7e79a84e4bd99e9a29de4b860008201527f8de8b6b300000000000000000000000000000000000000000000000000000000602082015250565b60006126ca6024836125cb565b91506126d58261266e565b604082019050919050565b600060208201905081810360008301526126f9816126bd565b9050919050565b7fe4bd99e9a29de4b88de8b6b30000000000000000000000000000000000000000600082015250565b6000612736600c836125cb565b915061274182612700565b602082019050919050565b6000602082019050818103600083015261276581612729565b9050919050565b6000604082019050612781600083018561235d565b61278e6020830184612287565b9392505050565b7f4e487b7100000000000000000000000000000000000000000000000000000000600052601160045260246000fd5b60006127cf8261209f565b91506127da8361209f565b92508282019050808211156127f2576127f1612795565b5b92915050565b7f536166654d6174683a206164646974696f6e206f766572666c6f770000000000600082015250565b600061282e601b836125cb565b9150612839826127f8565b602082019050919050565b6000602082019050818103600083015261285d81612821565b9050919050565b7f536166654d6174683a207375627472616374696f6e206f766572666c6f770000600082015250565b600061289a601e836125cb565b91506128a582612864565b602082019050919050565b600060208201905081810360008301526128c98161288d565b9050919050565b60006128db8261209f565b91506128e68361209f565b92508282039050818111156128fe576128fd612795565b5b92915050565b600061290f8261209f565b915061291a8361209f565b92508282026129288161209f565b9150828204841483151761293f5761293e612795565b5b5092915050565b7f4e487b7100000000000000000000000000000000000000000000000000000000600052601260045260246000fd5b60006129808261209f565b915061298b8361209f565b92508261299b5761299a612946565b5b828204905092915050565b7f536166654d6174683a206d756c7469706c69636174696f6e206f766572666c6f60008201527f7700000000000000000000000000000000000000000000000000000000000000602082015250565b6000612a026021836125cb565b9150612a0d826129a6565b604082019050919050565b60006020820190508181036000830152612a31816129f5565b9050919050565b7f536166654d6174683a206469766973696f6e206279207a65726f000000000000600082015250565b6000612a6e601a836125cb565b9150612a7982612a38565b602082019050919050565b60006020820190508181036000830152612a9d81612a61565b905091905056fea2646970667358221220b8b99a3adc45286107d8ea55259aee2c9db55b521385f7e2cafb6867da557b2c64736f6c63430008140033",
  "immutableReferences": {},
  "source": "// SPDX-License-Identifier: MIT\npragma solidity >=0.6.0 <0.9.0;\nimport './Qtum.sol';\nimport \"./SafeMath.sol\";\n\nenum OrderStateEnum{\n  Create, // 0 \n  Cancel, // 1 \n  Fill // 2 \n}\n\n// \nstruct _Order {\n  uint256 id;\n  address user;\n  address tokenGet;\n  uint256 amountGet;\n\n  address tokenGive;\n  uint256 amountGive;\n\n  uint256 timestamp;\n  OrderStateEnum orderState;\n}\n\ncontract Exchange {\n  using SafeMath for uint256;\n\n  // \n  address public feeAccount;\n  uint256 public feePercent;\n\n  address constant ETHER_ADDRESS = address(0);\n  mapping(address => mapping(address => uint256)) public tokens;\n\n  // _Order[] orderList;\n  mapping(uint256 => _Order) public orders;\n  uint256 public orderCount;\n\n  event Deposit(address token, address user, uint256 amount, uint256 balance);\n  event Withdraw(address token, address user, uint256 amount, uint256 balance);\n  event Order(uint256 id, address user, address tokenGet, uint256 amountGet, address tokenGive, uint256 amountGive, uint256 timestamp);\n  event Cancel(uint256 id, address user, address tokenGet, uint256 amountGet, address tokenGive, uint256 amountGive, uint256 timestamp);\n  event Fill(uint256 id, address user, address tokenGet, uint256 amountGet, address tokenGive, uint256 amountGive, uint256 timestamp);\n\n  constructor(address account, uint256 percent) {\n    feeAccount = account;\n    feePercent = percent;\n  }\n\n  // \n  function depositEther() payable public {\n    // msg.sender\n    // msg.value\n    tokens[ETHER_ADDRESS][msg.sender] = tokens[ETHER_ADDRESS][msg.sender].add(msg.value);\n    emit Deposit(ETHER_ADDRESS, msg.sender, msg.value, tokens[ETHER_ADDRESS][msg.sender]);\n\n  }\n\n  // \n  function depositToken(address _token, uint256 _amount) public {\n    require(_token != address(0));\n    // msg.sender()\n    Qtum(_token).transferFrom(msg.sender, address(this), _amount);\n    // \n    tokens[_token][msg.sender] = tokens[_token][msg.sender].add(_amount);\n    emit Deposit(_token, msg.sender, _amount, tokens[_token][msg.sender]);\n  }\n\n //\n  function withdrawEther(uint256 _amount) public{\n    require(tokens[ETHER_ADDRESS][msg.sender] >= _amount);\n    tokens[ETHER_ADDRESS][msg.sender] = tokens[ETHER_ADDRESS][msg.sender].sub(_amount);\n    //payable\n    payable(msg.sender).transfer(_amount);\n    emit Withdraw(ETHER_ADDRESS,msg.sender,_amount ,tokens[ETHER_ADDRESS][msg.sender]);\n  }\n\n  // token\n  function withdrawToken(address _token, uint256 _amount) public {\n    require(tokens[_token][msg.sender] >= _amount);\n    require(_token != address(0));\n\n    tokens[_token][msg.sender] = tokens[_token][msg.sender].sub(_amount);\n    // ()msg.sender\n    require(Qtum(_token).transfer(msg.sender, _amount));\n    emit Withdraw(_token, msg.sender, _amount, tokens[_token][msg.sender]);\n  }\n  // \n  function balanceOf(address _token, address _user) public view returns(uint256) {\n    return tokens[_token][_user];\n  }\n\n  // \n  function makeOrder(\n    address _tokenGet,\n    uint256 _amountGet,\n    address _tokenGive,\n    uint256 _amountGive) public {\n      require(balanceOf(_tokenGive, msg.sender) >= _amountGive, unicode\"\");\n      orderCount = orderCount.add(1);\n      orders[orderCount] = _Order(\n        orderCount,\n        msg.sender,\n        _tokenGet,\n        _amountGet,\n        _tokenGive,\n        _amountGive,\n        block.timestamp,\n        OrderStateEnum.Create\n      );\n\n      // \n      emit Order(orderCount,\n        msg.sender,\n        _tokenGet,\n        _amountGet,\n        _tokenGive,\n        _amountGive,\n        block.timestamp\n      );\n  }\n  // \n  function cancelOrder(uint256 _id) public {\n    orders[_id].orderState = OrderStateEnum.Cancel;\n    _Order memory o = orders[_id];\n    emit Cancel(\n      _id,\n      msg.sender,\n      o.tokenGet,\n      o.amountGet,\n      o.tokenGive,\n      o.amountGive,\n      block.timestamp\n    );\n  }\n  // \n  function fillOrder(uint256 _id) public {\n    _Order memory o = orders[_id];\n\n    //  \n    /*\n      xiaoming makeOrder\n      amountGet: 100 QT  => amountGive: 1ETH\n\n      xiaoming 100QT,  1ETH\n      msg.sender fillOrder\n      msg.sender 1ETH 100QT\n    */\n    uint256 feeAmount = o.amountGet.mul(feePercent).div(100);\n\n\n    require(balanceOf(o.tokenGive,o.user)>=o.amountGive,unicode\"\");\n\n    require(balanceOf(o.tokenGet,msg.sender)>=o.amountGet.add(feeAmount),unicode\"\");\n\n\n    tokens[o.tokenGet][msg.sender] = tokens[o.tokenGet][msg.sender].sub(o.amountGet.add(feeAmount));\n    tokens[o.tokenGet][o.user] = tokens[o.tokenGet][o.user].add(o.amountGet);\n\n   // \n    tokens[o.tokenGet][feeAccount] = tokens[o.tokenGet][feeAccount].add(feeAmount);\n\n    tokens[o.tokenGive][msg.sender] = tokens[o.tokenGive][msg.sender].add(o.amountGive);\n    tokens[o.tokenGive][o.user] = tokens[o.tokenGive][o.user].sub(o.amountGive);\n\n    orders[_id].orderState = OrderStateEnum.Fill;\n    emit Fill(\n      _id,\n      o.user,\n      o.tokenGet,\n      o.amountGet,\n      o.tokenGive,\n      o.amountGive,\n      block.timestamp\n    );\n\n  }\n  // order\n  function getOrders(uint id) public view returns(_Order memory) {\n    return orders[id];\n  }\n}\n",
  "sourcePath": "/Users/xiaoran/sites/web/web3/react-exchange-full/react-exchange/contracts/Exchange.sol",
  "compiler": {
    "name": "solc",
    "version": "0.8.20+commit.a1b79de6.Emscripten.clang"
  },
  "schemaVersion": "3.4.14",
  "updatedAt": "2023-08-01T09:08:00.466Z",
  "networkType": "ethereum",
  "devdoc": {
    "kind": "dev",
    "methods": {},
    "version": 1
  },
  "userdoc": {
    "kind": "user",
    "methods": {},
    "version": 1
  }
}