{
  "contractName": "Exchange",
  "abi": [
    {
      "inputs": [
        {
          "internalType": "address",
          "name": "account",
          "type": "address"
        },
        {
          "internalType": "uint256",
          "name": "percent",
          "type": "uint256"
        }
      ],
      "stateMutability": "nonpayable",
      "type": "constructor"
    },
    {
      "anonymous": false,
      "inputs": [
        {
          "indexed": false,
          "internalType": "uint256",
          "name": "id",
          "type": "uint256"
        },
        {
          "indexed": false,
          "internalType": "address",
          "name": "user",
          "type": "address"
        },
        {
          "indexed": false,
          "internalType": "address",
          "name": "tokenGet",
          "type": "address"
        },
        {
          "indexed": false,
          "internalType": "uint256",
          "name": "amountGet",
          "type": "uint256"
        },
        {
          "indexed": false,
          "internalType": "address",
          "name": "tokenGive",
          "type": "address"
        },
        {
          "indexed": false,
          "internalType": "uint256",
          "name": "amountGive",
          "type": "uint256"
        },
        {
          "indexed": false,
          "internalType": "uint256",
          "name": "timestamp",
          "type": "uint256"
        }
      ],
      "name": "Cancel",
      "type": "event"
    },
    {
      "anonymous": false,
      "inputs": [
        {
          "indexed": false,
          "internalType": "address",
          "name": "token",
          "type": "address"
        },
        {
          "indexed": false,
          "internalType": "address",
          "name": "user",
          "type": "address"
        },
        {
          "indexed": false,
          "internalType": "uint256",
          "name": "amount",
          "type": "uint256"
        },
        {
          "indexed": false,
          "internalType": "uint256",
          "name": "balance",
          "type": "uint256"
        }
      ],
      "name": "Deposit",
      "type": "event"
    },
    {
      "anonymous": false,
      "inputs": [
        {
          "indexed": false,
          "internalType": "uint256",
          "name": "id",
          "type": "uint256"
        },
        {
          "indexed": false,
          "internalType": "address",
          "name": "user",
          "type": "address"
        },
        {
          "indexed": false,
          "internalType": "address",
          "name": "tokenGet",
          "type": "address"
        },
        {
          "indexed": false,
          "internalType": "uint256",
          "name": "amountGet",
          "type": "uint256"
        },
        {
          "indexed": false,
          "internalType": "address",
          "name": "tokenGive",
          "type": "address"
        },
        {
          "indexed": false,
          "internalType": "uint256",
          "name": "amountGive",
          "type": "uint256"
        },
        {
          "indexed": false,
          "internalType": "uint256",
          "name": "timestamp",
          "type": "uint256"
        }
      ],
      "name": "Fill",
      "type": "event"
    },
    {
      "anonymous": false,
      "inputs": [
        {
          "indexed": false,
          "internalType": "uint256",
          "name": "id",
          "type": "uint256"
        },
        {
          "indexed": false,
          "internalType": "address",
          "name": "user",
          "type": "address"
        },
        {
          "indexed": false,
          "internalType": "address",
          "name": "tokenGet",
          "type": "address"
        },
        {
          "indexed": false,
          "internalType": "uint256",
          "name": "amountGet",
          "type": "uint256"
        },
        {
          "indexed": false,
          "internalType": "address",
          "name": "tokenGive",
          "type": "address"
        },
        {
          "indexed": false,
          "internalType": "uint256",
          "name": "amountGive",
          "type": "uint256"
        },
        {
          "indexed": false,
          "internalType": "uint256",
          "name": "timestamp",
          "type": "uint256"
        }
      ],
      "name": "Order",
      "type": "event"
    },
    {
      "anonymous": false,
      "inputs": [
        {
          "indexed": false,
          "internalType": "address",
          "name": "token",
          "type": "address"
        },
        {
          "indexed": false,
          "internalType": "address",
          "name": "user",
          "type": "address"
        },
        {
          "indexed": false,
          "internalType": "uint256",
          "name": "amount",
          "type": "uint256"
        },
        {
          "indexed": false,
          "internalType": "uint256",
          "name": "balance",
          "type": "uint256"
        }
      ],
      "name": "Withdraw",
      "type": "event"
    },
    {
      "inputs": [],
      "name": "feeAccount",
      "outputs": [
        {
          "internalType": "address",
          "name": "",
          "type": "address"
        }
      ],
      "stateMutability": "view",
      "type": "function",
      "constant": true
    },
    {
      "inputs": [],
      "name": "feePercent",
      "outputs": [
        {
          "internalType": "uint256",
          "name": "",
          "type": "uint256"
        }
      ],
      "stateMutability": "view",
      "type": "function",
      "constant": true
    },
    {
      "inputs": [],
      "name": "orderCount",
      "outputs": [
        {
          "internalType": "uint256",
          "name": "",
          "type": "uint256"
        }
      ],
      "stateMutability": "view",
      "type": "function",
      "constant": true
    },
    {
      "inputs": [
        {
          "internalType": "uint256",
          "name": "",
          "type": "uint256"
        }
      ],
      "name": "orders",
      "outputs": [
        {
          "internalType": "uint256",
          "name": "id",
          "type": "uint256"
        },
        {
          "internalType": "address",
          "name": "user",
          "type": "address"
        },
        {
          "internalType": "address",
          "name": "tokenGet",
          "type": "address"
        },
        {
          "internalType": "uint256",
          "name": "amountGet",
          "type": "uint256"
        },
        {
          "internalType": "address",
          "name": "tokenGive",
          "type": "address"
        },
        {
          "internalType": "uint256",
          "name": "amountGive",
          "type": "uint256"
        },
        {
          "internalType": "uint256",
          "name": "timestamp",
          "type": "uint256"
        },
        {
          "internalType": "enum OrderStateEnum",
          "name": "orderState",
          "type": "uint8"
        }
      ],
      "stateMutability": "view",
      "type": "function",
      "constant": true
    },
    {
      "inputs": [
        {
          "internalType": "address",
          "name": "",
          "type": "address"
        },
        {
          "internalType": "address",
          "name": "",
          "type": "address"
        }
      ],
      "name": "tokens",
      "outputs": [
        {
          "internalType": "uint256",
          "name": "",
          "type": "uint256"
        }
      ],
      "stateMutability": "view",
      "type": "function",
      "constant": true
    },
    {
      "inputs": [],
      "name": "depositEther",
      "outputs": [],
      "stateMutability": "payable",
      "type": "function",
      "payable": true
    },
    {
      "inputs": [
        {
          "internalType": "address",
          "name": "_token",
          "type": "address"
        },
        {
          "internalType": "uint256",
          "name": "_amount",
          "type": "uint256"
        }
      ],
      "name": "depositToken",
      "outputs": [],
      "stateMutability": "nonpayable",
      "type": "function"
    },
    {
      "inputs": [
        {
          "internalType": "uint256",
          "name": "_amount",
          "type": "uint256"
        }
      ],
      "name": "withdrawEther",
      "outputs": [],
      "stateMutability": "nonpayable",
      "type": "function"
    },
    {
      "inputs": [
        {
          "internalType": "address",
          "name": "_token",
          "type": "address"
        },
        {
          "internalType": "uint256",
          "name": "_amount",
          "type": "uint256"
        }
      ],
      "name": "withdrawToken",
      "outputs": [],
      "stateMutability": "nonpayable",
      "type": "function"
    },
    {
      "inputs": [
        {
          "internalType": "address",
          "name": "_token",
          "type": "address"
        },
        {
          "internalType": "address",
          "name": "_user",
          "type": "address"
        }
      ],
      "name": "balanceOf",
      "outputs": [
        {
          "internalType": "uint256",
          "name": "",
          "type": "uint256"
        }
      ],
      "stateMutability": "view",
      "type": "function",
      "constant": true
    },
    {
      "inputs": [
        {
          "internalType": "address",
          "name": "_tokenGet",
          "type": "address"
        },
        {
          "internalType": "uint256",
          "name": "_amountGet",
          "type": "uint256"
        },
        {
          "internalType": "address",
          "name": "_tokenGive",
          "type": "address"
        },
        {
          "internalType": "uint256",
          "name": "_amountGive",
          "type": "uint256"
        }
      ],
      "name": "makeOrder",
      "outputs": [],
      "stateMutability": "nonpayable",
      "type": "function"
    },
    {
      "inputs": [
        {
          "internalType": "uint256",
          "name": "_id",
          "type": "uint256"
        }
      ],
      "name": "cancelOrder",
      "outputs": [],
      "stateMutability": "nonpayable",
      "type": "function"
    },
    {
      "inputs": [
        {
          "internalType": "uint256",
          "name": "_id",
          "type": "uint256"
        }
      ],
      "name": "fillOrder",
      "outputs": [],
      "stateMutability": "nonpayable",
      "type": "function"
    },
    {
      "inputs": [
        {
          "internalType": "uint256",
          "name": "id",
          "type": "uint256"
        }
      ],
      "name": "getOrdersById",
      "outputs": [
        {
          "components": [
            {
              "internalType": "uint256",
              "name": "id",
              "type": "uint256"
            },
            {
              "internalType": "address",
              "name": "user",
              "type": "address"
            },
            {
              "internalType": "address",
              "name": "tokenGet",
              "type": "address"
            },
            {
              "internalType": "uint256",
              "name": "amountGet",
              "type": "uint256"
            },
            {
              "internalType": "address",
              "name": "tokenGive",
              "type": "address"
            },
            {
              "internalType": "uint256",
              "name": "amountGive",
              "type": "uint256"
            },
            {
              "internalType": "uint256",
              "name": "timestamp",
              "type": "uint256"
            },
            {
              "internalType": "enum OrderStateEnum",
              "name": "orderState",
              "type": "uint8"
            }
          ],
          "internalType": "struct _Order",
          "name": "",
          "type": "tuple"
        }
      ],
      "stateMutability": "view",
      "type": "function",
      "constant": true
    },
    {
      "inputs": [],
      "name": "getAllOrders",
      "outputs": [
        {
          "components": [
            {
              "internalType": "uint256",
              "name": "id",
              "type": "uint256"
            },
            {
              "internalType": "address",
              "name": "user",
              "type": "address"
            },
            {
              "internalType": "address",
              "name": "tokenGet",
              "type": "address"
            },
            {
              "internalType": "uint256",
              "name": "amountGet",
              "type": "uint256"
            },
            {
              "internalType": "address",
              "name": "tokenGive",
              "type": "address"
            },
            {
              "internalType": "uint256",
              "name": "amountGive",
              "type": "uint256"
            },
            {
              "internalType": "uint256",
              "name": "timestamp",
              "type": "uint256"
            },
            {
              "internalType": "enum OrderStateEnum",
              "name": "orderState",
              "type": "uint8"
            }
          ],
          "internalType": "struct _Order[]",
          "name": "",
          "type": "tuple[]"
        }
      ],
      "stateMutability": "view",
      "type": "function",
      "constant": true
    }
  ],
  "bytecode": "0x608060405260006004553480156200001657600080fd5b50604051620031623803806200316283398181016040528101906200003c919062000130565b816000806101000a81548173ffffffffffffffffffffffffffffffffffffffff021916908373ffffffffffffffffffffffffffffffffffffffff16021790555080600181905550505062000177565b600080fd5b600073ffffffffffffffffffffffffffffffffffffffff82169050919050565b6000620000bd8262000090565b9050919050565b620000cf81620000b0565b8114620000db57600080fd5b50565b600081519050620000ef81620000c4565b92915050565b6000819050919050565b6200010a81620000f5565b81146200011657600080fd5b50565b6000815190506200012a81620000ff565b92915050565b600080604083850312156200014a57620001496200008b565b5b60006200015a85828601620000de565b92505060206200016d8582860162000119565b9150509250929050565b612fdb80620001876000396000f3fe608060405260043610610105576000357c0100000000000000000000000000000000000000000000000000000000900480637bea0d1c116100a75780639e281a98116100765780639e281a98146102ca578063a85c38ef146102f3578063cea99cd614610337578063f7888aec1461037457610105565b80637bea0d1c146102415780637fd6f15c1461026c57806398ea5fca146102975780639a5c90aa146102a157610105565b8063508493bc116100e3578063508493bc14610187578063514fcac7146101c457806365e17c9d146101ed57806367b830ad1461021857610105565b80632453ffa81461010a578063338b5dea146101355780633bed33ce1461015e575b600080fd5b34801561011657600080fd5b5061011f6103b1565b60405161012c919061239a565b60405180910390f35b34801561014157600080fd5b5061015c60048036038101906101579190612444565b6103b7565b005b34801561016a57600080fd5b5061018560048036038101906101809190612484565b610659565b005b34801561019357600080fd5b506101ae60048036038101906101a991906124b1565b6108f5565b6040516101bb919061239a565b60405180910390f35b3480156101d057600080fd5b506101eb60048036038101906101e69190612484565b61091a565b005b3480156101f957600080fd5b50610202610b38565b60405161020f9190612500565b60405180910390f35b34801561022457600080fd5b5061023f600480360381019061023a9190612484565b610b5c565b005b34801561024d57600080fd5b50610256611454565b6040516102639190612702565b60405180910390f35b34801561027857600080fd5b506102816114d3565b60405161028e919061239a565b60405180910390f35b61029f6114d9565b005b3480156102ad57600080fd5b506102c860048036038101906102c39190612724565b6116a4565b005b3480156102d657600080fd5b506102f160048036038101906102ec9190612444565b61192d565b005b3480156102ff57600080fd5b5061031a60048036038101906103159190612484565b611c5e565b60405161032e98979695949392919061279a565b60405180910390f35b34801561034357600080fd5b5061035e60048036038101906103599190612484565b611d13565b60405161036b91906128ba565b60405180910390f35b34801561038057600080fd5b5061039b600480360381019061039691906124b1565b611ea6565b6040516103a8919061239a565b60405180910390f35b60045481565b600073ffffffffffffffffffffffffffffffffffffffff168273ffffffffffffffffffffffffffffffffffffffff16036103f057600080fd5b8173ffffffffffffffffffffffffffffffffffffffff166323b872dd3330846040518463ffffffff167c0100000000000000000000000000000000000000000000000000000000028152600401610449939291906128d6565b6020604051808303816000875af1158015610468573d6000803e3d6000fd5b505050506040513d601f19601f8201168201806040525081019061048c9190612945565b5061051c81600260008573ffffffffffffffffffffffffffffffffffffffff1673ffffffffffffffffffffffffffffffffffffffff16815260200190815260200160002060003373ffffffffffffffffffffffffffffffffffffffff1673ffffffffffffffffffffffffffffffffffffffff16815260200190815260200160002054611f2d90919063ffffffff16565b600260008473ffffffffffffffffffffffffffffffffffffffff1673ffffffffffffffffffffffffffffffffffffffff16815260200190815260200160002060003373ffffffffffffffffffffffffffffffffffffffff1673ffffffffffffffffffffffffffffffffffffffff168152602001908152602001600020819055507fdcbc1c05240f31ff3ad067ef1ee35ce4997762752e3a095284754544f4c709d7823383600260008773ffffffffffffffffffffffffffffffffffffffff1673ffffffffffffffffffffffffffffffffffffffff16815260200190815260200160002060003373ffffffffffffffffffffffffffffffffffffffff1673ffffffffffffffffffffffffffffffffffffffff1681526020019081526020016000205460405161064d9493929190612972565b60405180910390a15050565b80600260008073ffffffffffffffffffffffffffffffffffffffff1673ffffffffffffffffffffffffffffffffffffffff16815260200190815260200160002060003373ffffffffffffffffffffffffffffffffffffffff1673ffffffffffffffffffffffffffffffffffffffff1681526020019081526020016000205410156106e257600080fd5b61077181600260008073ffffffffffffffffffffffffffffffffffffffff1673ffffffffffffffffffffffffffffffffffffffff16815260200190815260200160002060003373ffffffffffffffffffffffffffffffffffffffff1673ffffffffffffffffffffffffffffffffffffffff16815260200190815260200160002054611f8b90919063ffffffff16565b600260008073ffffffffffffffffffffffffffffffffffffffff1673ffffffffffffffffffffffffffffffffffffffff16815260200190815260200160002060003373ffffffffffffffffffffffffffffffffffffffff1673ffffffffffffffffffffffffffffffffffffffff168152602001908152602001600020819055503373ffffffffffffffffffffffffffffffffffffffff166108fc829081150290604051600060405180830381858888f19350505050158015610837573d6000803e3d6000fd5b507ff341246adaac6f497bc2a656f546ab9e182111d630394f0c57c710a59a2cb56760003383600260008073ffffffffffffffffffffffffffffffffffffffff1673ffffffffffffffffffffffffffffffffffffffff16815260200190815260200160002060003373ffffffffffffffffffffffffffffffffffffffff1673ffffffffffffffffffffffffffffffffffffffff168152602001908152602001600020546040516108ea9493929190612972565b60405180910390a150565b6002602052816000526040600020602052806000526040600020600091509150505481565b60016003600083815260200190815260200160002060070160006101000a81548160ff0219169083600281111561095457610953612565565b5b021790555060006003600083815260200190815260200160002060405180610100016040529081600082015481526020016001820160009054906101000a900473ffffffffffffffffffffffffffffffffffffffff1673ffffffffffffffffffffffffffffffffffffffff1673ffffffffffffffffffffffffffffffffffffffff1681526020016002820160009054906101000a900473ffffffffffffffffffffffffffffffffffffffff1673ffffffffffffffffffffffffffffffffffffffff1673ffffffffffffffffffffffffffffffffffffffff168152602001600382015481526020016004820160009054906101000a900473ffffffffffffffffffffffffffffffffffffffff1673ffffffffffffffffffffffffffffffffffffffff1673ffffffffffffffffffffffffffffffffffffffff16815260200160058201548152602001600682015481526020016007820160009054906101000a900460ff166002811115610ac957610ac8612565565b5b6002811115610adb57610ada612565565b5b8152505090507f77de1da0be5f2d3b110d05c6694e5c4ff2d9da7cd23d84353ecf78c7b5acec6182338360400151846060015185608001518660a0015142604051610b2c97969594939291906129b7565b60405180910390a15050565b60008054906101000a900473ffffffffffffffffffffffffffffffffffffffff1681565b60006003600083815260200190815260200160002060405180610100016040529081600082015481526020016001820160009054906101000a900473ffffffffffffffffffffffffffffffffffffffff1673ffffffffffffffffffffffffffffffffffffffff1673ffffffffffffffffffffffffffffffffffffffff1681526020016002820160009054906101000a900473ffffffffffffffffffffffffffffffffffffffff1673ffffffffffffffffffffffffffffffffffffffff1673ffffffffffffffffffffffffffffffffffffffff168152602001600382015481526020016004820160009054906101000a900473ffffffffffffffffffffffffffffffffffffffff1673ffffffffffffffffffffffffffffffffffffffff1673ffffffffffffffffffffffffffffffffffffffff16815260200160058201548152602001600682015481526020016007820160009054906101000a900460ff166002811115610ccc57610ccb612565565b5b6002811115610cde57610cdd612565565b5b8152505090506000610d126064610d046001548560600151611fe490919063ffffffff16565b61205e90919063ffffffff16565b90508160a00151610d2b83608001518460200151611ea6565b1015610d6c576040517f08c379a0000000000000000000000000000000000000000000000000000000008152600401610d6390612aa9565b60405180910390fd5b610d83818360600151611f2d90919063ffffffff16565b610d91836040015133611ea6565b1015610dd2576040517f08c379a0000000000000000000000000000000000000000000000000000000008152600401610dc990612b3b565b60405180910390fd5b610e7b610dec828460600151611f2d90919063ffffffff16565b60026000856040015173ffffffffffffffffffffffffffffffffffffffff1673ffffffffffffffffffffffffffffffffffffffff16815260200190815260200160002060003373ffffffffffffffffffffffffffffffffffffffff1673ffffffffffffffffffffffffffffffffffffffff16815260200190815260200160002054611f8b90919063ffffffff16565b60026000846040015173ffffffffffffffffffffffffffffffffffffffff1673ffffffffffffffffffffffffffffffffffffffff16815260200190815260200160002060003373ffffffffffffffffffffffffffffffffffffffff1673ffffffffffffffffffffffffffffffffffffffff16815260200190815260200160002081905550610f9a826060015160026000856040015173ffffffffffffffffffffffffffffffffffffffff1673ffffffffffffffffffffffffffffffffffffffff1681526020019081526020016000206000856020015173ffffffffffffffffffffffffffffffffffffffff1673ffffffffffffffffffffffffffffffffffffffff16815260200190815260200160002054611f2d90919063ffffffff16565b60026000846040015173ffffffffffffffffffffffffffffffffffffffff1673ffffffffffffffffffffffffffffffffffffffff1681526020019081526020016000206000846020015173ffffffffffffffffffffffffffffffffffffffff1673ffffffffffffffffffffffffffffffffffffffff168152602001908152602001600020819055506110d68160026000856040015173ffffffffffffffffffffffffffffffffffffffff1673ffffffffffffffffffffffffffffffffffffffff16815260200190815260200160002060008060009054906101000a900473ffffffffffffffffffffffffffffffffffffffff1673ffffffffffffffffffffffffffffffffffffffff1673ffffffffffffffffffffffffffffffffffffffff16815260200190815260200160002054611f2d90919063ffffffff16565b60026000846040015173ffffffffffffffffffffffffffffffffffffffff1673ffffffffffffffffffffffffffffffffffffffff16815260200190815260200160002060008060009054906101000a900473ffffffffffffffffffffffffffffffffffffffff1673ffffffffffffffffffffffffffffffffffffffff1673ffffffffffffffffffffffffffffffffffffffff168152602001908152602001600020819055506112128260a0015160026000856080015173ffffffffffffffffffffffffffffffffffffffff1673ffffffffffffffffffffffffffffffffffffffff16815260200190815260200160002060003373ffffffffffffffffffffffffffffffffffffffff1673ffffffffffffffffffffffffffffffffffffffff16815260200190815260200160002054611f2d90919063ffffffff16565b60026000846080015173ffffffffffffffffffffffffffffffffffffffff1673ffffffffffffffffffffffffffffffffffffffff16815260200190815260200160002060003373ffffffffffffffffffffffffffffffffffffffff1673ffffffffffffffffffffffffffffffffffffffff168152602001908152602001600020819055506113318260a0015160026000856080015173ffffffffffffffffffffffffffffffffffffffff1673ffffffffffffffffffffffffffffffffffffffff1681526020019081526020016000206000856020015173ffffffffffffffffffffffffffffffffffffffff1673ffffffffffffffffffffffffffffffffffffffff16815260200190815260200160002054611f8b90919063ffffffff16565b60026000846080015173ffffffffffffffffffffffffffffffffffffffff1673ffffffffffffffffffffffffffffffffffffffff1681526020019081526020016000206000846020015173ffffffffffffffffffffffffffffffffffffffff1673ffffffffffffffffffffffffffffffffffffffff1681526020019081526020016000208190555060026003600085815260200190815260200160002060070160006101000a81548160ff021916908360028111156113f3576113f2612565565b5b02179055507f7345db3ed37137e433c949ad2e8739431edba418361dedf5c463f3e8853c7b688383602001518460400151856060015186608001518760a001514260405161144797969594939291906129b7565b60405180910390a1505050565b60606000600454036114c357600060045467ffffffffffffffff81111561147e5761147d612b5b565b5b6040519080825280602002602001820160405280156114b757816020015b6114a46122e8565b81526020019060019003908161149c5790505b509050809150506114d0565b6114cd60036120b6565b90505b90565b60015481565b61156834600260008073ffffffffffffffffffffffffffffffffffffffff1673ffffffffffffffffffffffffffffffffffffffff16815260200190815260200160002060003373ffffffffffffffffffffffffffffffffffffffff1673ffffffffffffffffffffffffffffffffffffffff16815260200190815260200160002054611f2d90919063ffffffff16565b600260008073ffffffffffffffffffffffffffffffffffffffff1673ffffffffffffffffffffffffffffffffffffffff16815260200190815260200160002060003373ffffffffffffffffffffffffffffffffffffffff1673ffffffffffffffffffffffffffffffffffffffff168152602001908152602001600020819055507fdcbc1c05240f31ff3ad067ef1ee35ce4997762752e3a095284754544f4c709d760003334600260008073ffffffffffffffffffffffffffffffffffffffff1673ffffffffffffffffffffffffffffffffffffffff16815260200190815260200160002060003373ffffffffffffffffffffffffffffffffffffffff1673ffffffffffffffffffffffffffffffffffffffff1681526020019081526020016000205460405161169a9493929190612972565b60405180910390a1565b806116af8333611ea6565b10156116f0576040517f08c379a00000000000000000000000000000000000000000000000000000000081526004016116e790612bd6565b60405180910390fd5b6117066001600454611f2d90919063ffffffff16565b60048190555060405180610100016040528060045481526020013373ffffffffffffffffffffffffffffffffffffffff1681526020018573ffffffffffffffffffffffffffffffffffffffff1681526020018481526020018373ffffffffffffffffffffffffffffffffffffffff1681526020018281526020014281526020016000600281111561179a57611799612565565b5b8152506003600060045481526020019081526020016000206000820151816000015560208201518160010160006101000a81548173ffffffffffffffffffffffffffffffffffffffff021916908373ffffffffffffffffffffffffffffffffffffffff16021790555060408201518160020160006101000a81548173ffffffffffffffffffffffffffffffffffffffff021916908373ffffffffffffffffffffffffffffffffffffffff1602179055506060820151816003015560808201518160040160006101000a81548173ffffffffffffffffffffffffffffffffffffffff021916908373ffffffffffffffffffffffffffffffffffffffff16021790555060a0820151816005015560c0820151816006015560e08201518160070160006101000a81548160ff021916908360028111156118da576118d9612565565b5b02179055509050507f9d33853d43e3607b4cc01fdc78338ff2dca6fef7db9232dae6d3eb55fbc3b10960045433868686864260405161191f97969594939291906129b7565b60405180910390a150505050565b80600260008473ffffffffffffffffffffffffffffffffffffffff1673ffffffffffffffffffffffffffffffffffffffff16815260200190815260200160002060003373ffffffffffffffffffffffffffffffffffffffff1673ffffffffffffffffffffffffffffffffffffffff1681526020019081526020016000205410156119b657600080fd5b600073ffffffffffffffffffffffffffffffffffffffff168273ffffffffffffffffffffffffffffffffffffffff16036119ef57600080fd5b611a7e81600260008573ffffffffffffffffffffffffffffffffffffffff1673ffffffffffffffffffffffffffffffffffffffff16815260200190815260200160002060003373ffffffffffffffffffffffffffffffffffffffff1673ffffffffffffffffffffffffffffffffffffffff16815260200190815260200160002054611f8b90919063ffffffff16565b600260008473ffffffffffffffffffffffffffffffffffffffff1673ffffffffffffffffffffffffffffffffffffffff16815260200190815260200160002060003373ffffffffffffffffffffffffffffffffffffffff1673ffffffffffffffffffffffffffffffffffffffff168152602001908152602001600020819055508173ffffffffffffffffffffffffffffffffffffffff1663a9059cbb33836040518363ffffffff167c0100000000000000000000000000000000000000000000000000000000028152600401611b55929190612bf6565b6020604051808303816000875af1158015611b74573d6000803e3d6000fd5b505050506040513d601f19601f82011682018060405250810190611b989190612945565b611ba157600080fd5b7ff341246adaac6f497bc2a656f546ab9e182111d630394f0c57c710a59a2cb567823383600260008773ffffffffffffffffffffffffffffffffffffffff1673ffffffffffffffffffffffffffffffffffffffff16815260200190815260200160002060003373ffffffffffffffffffffffffffffffffffffffff1673ffffffffffffffffffffffffffffffffffffffff16815260200190815260200160002054604051611c529493929190612972565b60405180910390a15050565b60036020528060005260406000206000915090508060000154908060010160009054906101000a900473ffffffffffffffffffffffffffffffffffffffff16908060020160009054906101000a900473ffffffffffffffffffffffffffffffffffffffff16908060030154908060040160009054906101000a900473ffffffffffffffffffffffffffffffffffffffff16908060050154908060060154908060070160009054906101000a900460ff16905088565b611d1b6122e8565b6003600083815260200190815260200160002060405180610100016040529081600082015481526020016001820160009054906101000a900473ffffffffffffffffffffffffffffffffffffffff1673ffffffffffffffffffffffffffffffffffffffff1673ffffffffffffffffffffffffffffffffffffffff1681526020016002820160009054906101000a900473ffffffffffffffffffffffffffffffffffffffff1673ffffffffffffffffffffffffffffffffffffffff1673ffffffffffffffffffffffffffffffffffffffff168152602001600382015481526020016004820160009054906101000a900473ffffffffffffffffffffffffffffffffffffffff1673ffffffffffffffffffffffffffffffffffffffff1673ffffffffffffffffffffffffffffffffffffffff16815260200160058201548152602001600682015481526020016007820160009054906101000a900460ff166002811115611e8957611e88612565565b5b6002811115611e9b57611e9a612565565b5b815250509050919050565b6000600260008473ffffffffffffffffffffffffffffffffffffffff1673ffffffffffffffffffffffffffffffffffffffff16815260200190815260200160002060008373ffffffffffffffffffffffffffffffffffffffff1673ffffffffffffffffffffffffffffffffffffffff16815260200190815260200160002054905092915050565b6000808284611f3c9190612c4e565b905083811015611f81576040517f08c379a0000000000000000000000000000000000000000000000000000000008152600401611f7890612cce565b60405180910390fd5b8091505092915050565b600082821115611fd0576040517f08c379a0000000000000000000000000000000000000000000000000000000008152600401611fc790612d3a565b60405180910390fd5b8183611fdc9190612d5a565b905092915050565b6000808303611ff65760009050612058565b600082846120049190612d8e565b90508284826120139190612dff565b14612053576040517f08c379a000000000000000000000000000000000000000000000000000000000815260040161204a90612ea2565b60405180910390fd5b809150505b92915050565b60008082116120a2576040517f08c379a000000000000000000000000000000000000000000000000000000000815260040161209990612f0e565b60405180910390fd5b81836120ae9190612dff565b905092915050565b6060600060016004546120c99190612c4e565b67ffffffffffffffff8111156120e2576120e1612b5b565b5b60405190808252806020026020018201604052801561211b57816020015b6121086122e8565b8152602001906001900390816121005790505b50905060005b60045481116122de5783600082815260200190815260200160002060405180610100016040529081600082015481526020016001820160009054906101000a900473ffffffffffffffffffffffffffffffffffffffff1673ffffffffffffffffffffffffffffffffffffffff1673ffffffffffffffffffffffffffffffffffffffff1681526020016002820160009054906101000a900473ffffffffffffffffffffffffffffffffffffffff1673ffffffffffffffffffffffffffffffffffffffff1673ffffffffffffffffffffffffffffffffffffffff168152602001600382015481526020016004820160009054906101000a900473ffffffffffffffffffffffffffffffffffffffff1673ffffffffffffffffffffffffffffffffffffffff1673ffffffffffffffffffffffffffffffffffffffff16815260200160058201548152602001600682015481526020016007820160009054906101000a900460ff16600281111561229757612296612565565b5b60028111156122a9576122a8612565565b5b815250508282815181106122c0576122bf612f2e565b5b602002602001018190525080806122d690612f5d565b915050612121565b5080915050919050565b60405180610100016040528060008152602001600073ffffffffffffffffffffffffffffffffffffffff168152602001600073ffffffffffffffffffffffffffffffffffffffff16815260200160008152602001600073ffffffffffffffffffffffffffffffffffffffff16815260200160008152602001600081526020016000600281111561237b5761237a612565565b5b81525090565b6000819050919050565b61239481612381565b82525050565b60006020820190506123af600083018461238b565b92915050565b600080fd5b600073ffffffffffffffffffffffffffffffffffffffff82169050919050565b60006123e5826123ba565b9050919050565b6123f5816123da565b811461240057600080fd5b50565b600081359050612412816123ec565b92915050565b61242181612381565b811461242c57600080fd5b50565b60008135905061243e81612418565b92915050565b6000806040838503121561245b5761245a6123b5565b5b600061246985828601612403565b925050602061247a8582860161242f565b9150509250929050565b60006020828403121561249a576124996123b5565b5b60006124a88482850161242f565b91505092915050565b600080604083850312156124c8576124c76123b5565b5b60006124d685828601612403565b92505060206124e785828601612403565b9150509250929050565b6124fa816123da565b82525050565b600060208201905061251560008301846124f1565b92915050565b600081519050919050565b600082825260208201905092915050565b6000819050602082019050919050565b61255081612381565b82525050565b61255f816123da565b82525050565b7f4e487b7100000000000000000000000000000000000000000000000000000000600052602160045260246000fd5b600381106125a5576125a4612565565b5b50565b60008190506125b682612594565b919050565b60006125c6826125a8565b9050919050565b6125d6816125bb565b82525050565b610100820160008201516125f36000850182612547565b5060208201516126066020850182612556565b5060408201516126196040850182612556565b50606082015161262c6060850182612547565b50608082015161263f6080850182612556565b5060a082015161265260a0850182612547565b5060c082015161266560c0850182612547565b5060e082015161267860e08501826125cd565b50505050565b600061268a83836125dc565b6101008301905092915050565b6000602082019050919050565b60006126af8261251b565b6126b98185612526565b93506126c483612537565b8060005b838110156126f55781516126dc888261267e565b97506126e783612697565b9250506001810190506126c8565b5085935050505092915050565b6000602082019050818103600083015261271c81846126a4565b905092915050565b6000806000806080858703121561273e5761273d6123b5565b5b600061274c87828801612403565b945050602061275d8782880161242f565b935050604061276e87828801612403565b925050606061277f8782880161242f565b91505092959194509250565b612794816125bb565b82525050565b6000610100820190506127b0600083018b61238b565b6127bd602083018a6124f1565b6127ca60408301896124f1565b6127d7606083018861238b565b6127e460808301876124f1565b6127f160a083018661238b565b6127fe60c083018561238b565b61280b60e083018461278b565b9998505050505050505050565b6101008201600082015161282f6000850182612547565b5060208201516128426020850182612556565b5060408201516128556040850182612556565b5060608201516128686060850182612547565b50608082015161287b6080850182612556565b5060a082015161288e60a0850182612547565b5060c08201516128a160c0850182612547565b5060e08201516128b460e08501826125cd565b50505050565b6000610100820190506128d06000830184612818565b92915050565b60006060820190506128eb60008301866124f1565b6128f860208301856124f1565b612905604083018461238b565b949350505050565b60008115159050919050565b6129228161290d565b811461292d57600080fd5b50565b60008151905061293f81612919565b92915050565b60006020828403121561295b5761295a6123b5565b5b600061296984828501612930565b91505092915050565b600060808201905061298760008301876124f1565b61299460208301866124f1565b6129a1604083018561238b565b6129ae606083018461238b565b95945050505050565b600060e0820190506129cc600083018a61238b565b6129d960208301896124f1565b6129e660408301886124f1565b6129f3606083018761238b565b612a0060808301866124f1565b612a0d60a083018561238b565b612a1a60c083018461238b565b98975050505050505050565b600082825260208201905092915050565b7fe5889be5bbbae8aea2e58d95e79a84e794a8e688b7e79a84e4bd99e9a29de4b860008201527f8de8b6b300000000000000000000000000000000000000000000000000000000602082015250565b6000612a93602483612a26565b9150612a9e82612a37565b604082019050919050565b60006020820190508181036000830152612ac281612a86565b9050919050565b7fe5a1abe58585e8aea2e58d95e79a84e794a8e688b7e79a84e4bd99e9a29de4b860008201527f8de8b6b300000000000000000000000000000000000000000000000000000000602082015250565b6000612b25602483612a26565b9150612b3082612ac9565b604082019050919050565b60006020820190508181036000830152612b5481612b18565b9050919050565b7f4e487b7100000000000000000000000000000000000000000000000000000000600052604160045260246000fd5b7fe4bd99e9a29de4b88de8b6b30000000000000000000000000000000000000000600082015250565b6000612bc0600c83612a26565b9150612bcb82612b8a565b602082019050919050565b60006020820190508181036000830152612bef81612bb3565b9050919050565b6000604082019050612c0b60008301856124f1565b612c18602083018461238b565b9392505050565b7f4e487b7100000000000000000000000000000000000000000000000000000000600052601160045260246000fd5b6000612c5982612381565b9150612c6483612381565b9250828201905080821115612c7c57612c7b612c1f565b5b92915050565b7f536166654d6174683a206164646974696f6e206f766572666c6f770000000000600082015250565b6000612cb8601b83612a26565b9150612cc382612c82565b602082019050919050565b60006020820190508181036000830152612ce781612cab565b9050919050565b7f536166654d6174683a207375627472616374696f6e206f766572666c6f770000600082015250565b6000612d24601e83612a26565b9150612d2f82612cee565b602082019050919050565b60006020820190508181036000830152612d5381612d17565b9050919050565b6000612d6582612381565b9150612d7083612381565b9250828203905081811115612d8857612d87612c1f565b5b92915050565b6000612d9982612381565b9150612da483612381565b9250828202612db281612381565b91508282048414831517612dc957612dc8612c1f565b5b5092915050565b7f4e487b7100000000000000000000000000000000000000000000000000000000600052601260045260246000fd5b6000612e0a82612381565b9150612e1583612381565b925082612e2557612e24612dd0565b5b828204905092915050565b7f536166654d6174683a206d756c7469706c69636174696f6e206f766572666c6f60008201527f7700000000000000000000000000000000000000000000000000000000000000602082015250565b6000612e8c602183612a26565b9150612e9782612e30565b604082019050919050565b60006020820190508181036000830152612ebb81612e7f565b9050919050565b7f536166654d6174683a206469766973696f6e206279207a65726f000000000000600082015250565b6000612ef8601a83612a26565b9150612f0382612ec2565b602082019050919050565b60006020820190508181036000830152612f2781612eeb565b9050919050565b7f4e487b7100000000000000000000000000000000000000000000000000000000600052603260045260246000fd5b6000612f6882612381565b91507fffffffffffffffffffffffffffffffffffffffffffffffffffffffffffffffff8203612f9a57612f99612c1f565b5b60018201905091905056fea2646970667358221220466b782e4c9546d77e6b66e320d2696b5563665f455299ad71771ee51ddf0c3664736f6c63430008140033",
  "immutableReferences": {},
  "source": "// SPDX-License-Identifier: MIT\npragma solidity >=0.6.0 <0.9.0;\nimport './Qtum.sol';\nimport \"./SafeMath.sol\";\n\nenum OrderStateEnum{\n  Create, // 0 \n  Cancel, // 1 \n  Fill // 2 \n}\n\n// \nstruct _Order {\n  uint256 id;\n  address user;\n  address tokenGet;\n  uint256 amountGet;\n\n  address tokenGive;\n  uint256 amountGive;\n\n  uint256 timestamp;\n  OrderStateEnum orderState;\n}\n\ncontract Exchange {\n  using SafeMath for uint256;\n\n  // \n  address public feeAccount;\n  uint256 public feePercent;\n\n  address constant ETHER_ADDRESS = address(0);\n  mapping(address => mapping(address => uint256)) public tokens;\n\n  // _Order[] orderList;\n  mapping(uint256 => _Order) public orders;\n  uint256 public orderCount = 0;\n\n  event Deposit(address token, address user, uint256 amount, uint256 balance);\n  event Withdraw(address token, address user, uint256 amount, uint256 balance);\n  event Order(uint256 id, address user, address tokenGet, uint256 amountGet, address tokenGive, uint256 amountGive, uint256 timestamp);\n  event Cancel(uint256 id, address user, address tokenGet, uint256 amountGet, address tokenGive, uint256 amountGive, uint256 timestamp);\n  event Fill(uint256 id, address user, address tokenGet, uint256 amountGet, address tokenGive, uint256 amountGive, uint256 timestamp);\n\n  constructor(address account, uint256 percent) {\n    feeAccount = account;\n    feePercent = percent;\n  }\n\n  // \n  function depositEther() payable public {\n    // msg.sender\n    // msg.value\n    tokens[ETHER_ADDRESS][msg.sender] = tokens[ETHER_ADDRESS][msg.sender].add(msg.value);\n    emit Deposit(ETHER_ADDRESS, msg.sender, msg.value, tokens[ETHER_ADDRESS][msg.sender]);\n\n  }\n\n  // \n  function depositToken(address _token, uint256 _amount) public {\n    require(_token != address(0));\n    // msg.sender()\n    Qtum(_token).transferFrom(msg.sender, address(this), _amount);\n    // \n    tokens[_token][msg.sender] = tokens[_token][msg.sender].add(_amount);\n    emit Deposit(_token, msg.sender, _amount, tokens[_token][msg.sender]);\n  }\n\n //\n  function withdrawEther(uint256 _amount) public{\n    require(tokens[ETHER_ADDRESS][msg.sender] >= _amount);\n    tokens[ETHER_ADDRESS][msg.sender] = tokens[ETHER_ADDRESS][msg.sender].sub(_amount);\n    //payable\n    payable(msg.sender).transfer(_amount);\n    emit Withdraw(ETHER_ADDRESS,msg.sender,_amount ,tokens[ETHER_ADDRESS][msg.sender]);\n  }\n\n  // token\n  function withdrawToken(address _token, uint256 _amount) public {\n    require(tokens[_token][msg.sender] >= _amount);\n    require(_token != address(0));\n\n    tokens[_token][msg.sender] = tokens[_token][msg.sender].sub(_amount);\n    // ()msg.sender\n    require(Qtum(_token).transfer(msg.sender, _amount));\n    emit Withdraw(_token, msg.sender, _amount, tokens[_token][msg.sender]);\n  }\n  // \n  function balanceOf(address _token, address _user) public view returns(uint256) {\n    return tokens[_token][_user];\n  }\n\n  // \n  function makeOrder(\n    address _tokenGet,\n    uint256 _amountGet,\n    address _tokenGive,\n    uint256 _amountGive) public {\n      require(balanceOf(_tokenGive, msg.sender) >= _amountGive, unicode\"\");\n      orderCount = orderCount.add(1);\n      orders[orderCount] = _Order(\n        orderCount,\n        msg.sender,\n        _tokenGet,\n        _amountGet,\n        _tokenGive,\n        _amountGive,\n        block.timestamp,\n        OrderStateEnum.Create\n      );\n\n      // \n      emit Order(orderCount,\n        msg.sender,\n        _tokenGet,\n        _amountGet,\n        _tokenGive,\n        _amountGive,\n        block.timestamp\n      );\n  }\n  // \n  function cancelOrder(uint256 _id) public {\n    orders[_id].orderState = OrderStateEnum.Cancel;\n    _Order memory o = orders[_id];\n    emit Cancel(\n      _id,\n      msg.sender,\n      o.tokenGet,\n      o.amountGet,\n      o.tokenGive,\n      o.amountGive,\n      block.timestamp\n    );\n  }\n  // \n  function fillOrder(uint256 _id) public {\n    _Order memory o = orders[_id];\n\n    //  \n    /*\n      xiaoming makeOrder\n      amountGet: 100 QT  => amountGive: 1ETH\n\n      xiaoming 100QT,  1ETH\n      msg.sender fillOrder\n      msg.sender 1ETH 100QT\n    */\n    uint256 feeAmount = o.amountGet.mul(feePercent).div(100);\n\n\n    require(balanceOf(o.tokenGive,o.user)>=o.amountGive,unicode\"\");\n\n    require(balanceOf(o.tokenGet,msg.sender)>=o.amountGet.add(feeAmount),unicode\"\");\n\n\n    tokens[o.tokenGet][msg.sender] = tokens[o.tokenGet][msg.sender].sub(o.amountGet.add(feeAmount));\n    tokens[o.tokenGet][o.user] = tokens[o.tokenGet][o.user].add(o.amountGet);\n\n   // \n    tokens[o.tokenGet][feeAccount] = tokens[o.tokenGet][feeAccount].add(feeAmount);\n\n    tokens[o.tokenGive][msg.sender] = tokens[o.tokenGive][msg.sender].add(o.amountGive);\n    tokens[o.tokenGive][o.user] = tokens[o.tokenGive][o.user].sub(o.amountGive);\n\n    orders[_id].orderState = OrderStateEnum.Fill;\n    emit Fill(\n      _id,\n      o.user,\n      o.tokenGet,\n      o.amountGet,\n      o.tokenGive,\n      o.amountGive,\n      block.timestamp\n    );\n\n  }\n  // order\n  function getOrdersById(uint id) public view returns(_Order memory) {\n    return orders[id];\n  }\n  // \n  function mapToArray(mapping(uint256 => _Order) storage allOrders) internal view returns (_Order[] memory) {\n    // id0order 1\n    _Order[] memory orderArray = new _Order[](orderCount + 1);\n    for (uint256 i = 0; i <= orderCount; i++) {\n        orderArray[i] = allOrders[i];\n    }\n    return orderArray;\n  }\n  function getAllOrders() public view returns(_Order[] memory) {\n    if (orderCount == 0) {\n      _Order[] memory orderArray = new _Order[](orderCount);\n      return  orderArray;\n    }\n    return mapToArray(orders);\n  }\n}\n",
  "sourcePath": "/Users/xiaoran/sites/web/web3/react-exchange-full/react-exchange/contracts/Exchange.sol",
  "compiler": {
    "name": "solc",
    "version": "0.8.20+commit.a1b79de6.Emscripten.clang"
  },
  "schemaVersion": "3.4.14",
  "updatedAt": "2023-08-04T08:50:47.871Z",
  "networkType": "ethereum",
  "devdoc": {
    "kind": "dev",
    "methods": {},
    "version": 1
  },
  "userdoc": {
    "kind": "user",
    "methods": {},
    "version": 1
  }
}