{
  "contractName": "StudentStorage",
  "abi": [
    {
      "inputs": [],
      "name": "age",
      "outputs": [
        {
          "internalType": "uint256",
          "name": "",
          "type": "uint256"
        }
      ],
      "stateMutability": "view",
      "type": "function",
      "constant": true
    },
    {
      "inputs": [],
      "name": "username",
      "outputs": [
        {
          "internalType": "string",
          "name": "",
          "type": "string"
        }
      ],
      "stateMutability": "view",
      "type": "function",
      "constant": true
    },
    {
      "inputs": [
        {
          "internalType": "uint8",
          "name": "_age",
          "type": "uint8"
        },
        {
          "internalType": "string",
          "name": "_username",
          "type": "string"
        }
      ],
      "name": "setData",
      "outputs": [],
      "stateMutability": "nonpayable",
      "type": "function"
    },
    {
      "inputs": [],
      "name": "getAge",
      "outputs": [
        {
          "internalType": "uint256",
          "name": "",
          "type": "uint256"
        }
      ],
      "stateMutability": "view",
      "type": "function",
      "constant": true
    },
    {
      "inputs": [],
      "name": "getUsername",
      "outputs": [
        {
          "internalType": "string",
          "name": "",
          "type": "string"
        }
      ],
      "stateMutability": "view",
      "type": "function",
      "constant": true
    }
  ],
  "bytecode": "0x608060405234801561001057600080fd5b5061079d806100206000396000f3fe608060405234801561001057600080fd5b5060043610610074576000357c010000000000000000000000000000000000000000000000000000000090048063262a9dff1461007957806361fac54d14610097578063681f3e6d146100b5578063967e6e65146100d3578063fb6ccbcb146100f1575b600080fd5b61008161010d565b60405161008e9190610276565b60405180910390f35b61009f610113565b6040516100ac9190610321565b60405180910390f35b6100bd6101a1565b6040516100ca9190610321565b60405180910390f35b6100db610233565b6040516100e89190610276565b60405180910390f35b61010b600480360381019061010691906103eb565b61023c565b005b60005481565b600180546101209061047a565b80601f016020809104026020016040519081016040528092919081815260200182805461014c9061047a565b80156101995780601f1061016e57610100808354040283529160200191610199565b820191906000526020600020905b81548152906001019060200180831161017c57829003601f168201915b505050505081565b6060600180546101b09061047a565b80601f01602080910402602001604051908101604052809291908181526020018280546101dc9061047a565b80156102295780601f106101fe57610100808354040283529160200191610229565b820191906000526020600020905b81548152906001019060200180831161020c57829003601f168201915b5050505050905090565b60008054905090565b8260ff16600081905550818160019182610257929190610697565b50505050565b6000819050919050565b6102708161025d565b82525050565b600060208201905061028b6000830184610267565b92915050565b600081519050919050565b600082825260208201905092915050565b60005b838110156102cb5780820151818401526020810190506102b0565b60008484015250505050565b6000601f19601f8301169050919050565b60006102f382610291565b6102fd818561029c565b935061030d8185602086016102ad565b610316816102d7565b840191505092915050565b6000602082019050818103600083015261033b81846102e8565b905092915050565b600080fd5b600080fd5b600060ff82169050919050565b6103638161034d565b811461036e57600080fd5b50565b6000813590506103808161035a565b92915050565b600080fd5b600080fd5b600080fd5b60008083601f8401126103ab576103aa610386565b5b8235905067ffffffffffffffff8111156103c8576103c761038b565b5b6020830191508360018202830111156103e4576103e3610390565b5b9250929050565b60008060006040848603121561040457610403610343565b5b600061041286828701610371565b935050602084013567ffffffffffffffff81111561043357610432610348565b5b61043f86828701610395565b92509250509250925092565b7f4e487b7100000000000000000000000000000000000000000000000000000000600052602260045260246000fd5b6000600282049050600182168061049257607f821691505b6020821081036104a5576104a461044b565b5b50919050565b600082905092915050565b7f4e487b7100000000000000000000000000000000000000000000000000000000600052604160045260246000fd5b60008190508160005260206000209050919050565b60006020601f8301049050919050565b60008160020a8302905092915050565b60006008830261054a7fffffffffffffffffffffffffffffffffffffffffffffffffffffffffffffffff8261050a565b610554868361050a565b95508019841693508086168417925050509392505050565b6000819050919050565b600061059161058c6105878461025d565b61056c565b61025d565b9050919050565b6000819050919050565b6105ab83610576565b6105bf6105b782610598565b84845461051a565b825550505050565b600090565b6105d46105c7565b6105df8184846105a2565b505050565b5b81811015610603576105f86000826105cc565b6001810190506105e5565b5050565b601f82111561064857610619816104e5565b610622846104fa565b81016020851015610631578190505b61064561063d856104fa565b8301826105e4565b50505b505050565b60008160020a8304905092915050565b600061066e6000198460080261064d565b1980831691505092915050565b6000610687838361065d565b9150826002028217905092915050565b6106a183836104ab565b67ffffffffffffffff8111156106ba576106b96104b6565b5b6106c4825461047a565b6106cf828285610607565b6000601f8311600181146106fe57600084156106ec578287013590505b6106f6858261067b565b86555061075e565b601f19841661070c866104e5565b60005b828110156107345784890135825560018201915060208501945060208101905061070f565b86831015610751578489013561074d601f89168261065d565b8355505b6001600288020188555050505b5050505050505056fea264697066735822122069d593125bac58db697daf5c3475e3b763095d022109f25188976ec0e3e6476564736f6c63430008140033",
  "immutableReferences": {},
  "source": "// SPDX-License-Identifier: MIT\npragma solidity ^0.8.7;\n\ncontract StudentStorage {\n    uint public age;\n    string public username;\n\n    function setData(uint8 _age, string calldata _username) public {\n        age = _age;\n        username = _username;\n    }\n\n    function getAge() public view returns(uint) {\n        return age;\n    }\n\n    function getUsername() public view  returns(string memory) {\n        return username;\n\n    }\n}",
  "sourcePath": "/Users/xiaoran/sites/web/web3/react-exchange-full/react-exchange/contracts/StudentStorage.sol",
  "compiler": {
    "name": "solc",
    "version": "0.8.20+commit.a1b79de6.Emscripten.clang"
  },
  "schemaVersion": "3.4.14",
  "updatedAt": "2023-08-01T09:07:58.628Z",
  "networkType": "ethereum",
  "devdoc": {
    "kind": "dev",
    "methods": {},
    "version": 1
  },
  "userdoc": {
    "kind": "user",
    "methods": {},
    "version": 1
  }
}