{
  "contractName": "StudentListStorage",
  "abi": [
    {
      "inputs": [
        {
          "internalType": "uint256",
          "name": "",
          "type": "uint256"
        }
      ],
      "name": "studentList",
      "outputs": [
        {
          "internalType": "uint256",
          "name": "id",
          "type": "uint256"
        },
        {
          "internalType": "uint256",
          "name": "age",
          "type": "uint256"
        },
        {
          "internalType": "string",
          "name": "username",
          "type": "string"
        }
      ],
      "stateMutability": "view",
      "type": "function",
      "constant": true
    },
    {
      "inputs": [
        {
          "internalType": "uint8",
          "name": "_age",
          "type": "uint8"
        },
        {
          "internalType": "string",
          "name": "_username",
          "type": "string"
        }
      ],
      "name": "addList",
      "outputs": [
        {
          "internalType": "uint256",
          "name": "",
          "type": "uint256"
        }
      ],
      "stateMutability": "nonpayable",
      "type": "function"
    },
    {
      "inputs": [],
      "name": "getList",
      "outputs": [
        {
          "components": [
            {
              "internalType": "uint256",
              "name": "id",
              "type": "uint256"
            },
            {
              "internalType": "uint256",
              "name": "age",
              "type": "uint256"
            },
            {
              "internalType": "string",
              "name": "username",
              "type": "string"
            }
          ],
          "internalType": "struct StudentListStorage.Student[]",
          "name": "",
          "type": "tuple[]"
        }
      ],
      "stateMutability": "view",
      "type": "function",
      "constant": true
    }
  ],
  "bytecode": "0x608060405234801561001057600080fd5b50610b2a806100206000396000f3fe608060405234801561001057600080fd5b506004361061005e576000357c01000000000000000000000000000000000000000000000000000000009004806317d3f2d8146100635780637df221e914610093578063942b765a146100c5575b600080fd5b61007d60048036038101906100789190610436565b6100e3565b60405161008a91906104af565b60405180910390f35b6100ad60048036038101906100a891906104f6565b6101c7565b6040516100bc939291906105b3565b60405180910390f35b6100cd610289565b6040516100da919061075c565b60405180910390f35b60008060008054905090506001816100fb91906107ad565b9050600060405180606001604052808381526020018760ff16815260200186868080601f016020809104026020016040519081016040528093929190818152602001838380828437600081840152601f19601f8201169050808301925050505050505081525090506000819080600181540180825580915050600190039060005260206000209060030201600090919091909150600082015181600001556020820151816001015560408201518160020190816101b89190610a22565b50505081925050509392505050565b600081815481106101d757600080fd5b90600052602060002090600302016000915090508060000154908060010154908060020180546102069061083f565b80601f01602080910402602001604051908101604052809291908181526020018280546102329061083f565b801561027f5780601f106102545761010080835404028352916020019161027f565b820191906000526020600020905b81548152906001019060200180831161026257829003601f168201915b5050505050905083565b60606000805480602002602001604051908101604052809291908181526020016000905b82821015610385578382906000526020600020906003020160405180606001604052908160008201548152602001600182015481526020016002820180546102f49061083f565b80601f01602080910402602001604051908101604052809291908181526020018280546103209061083f565b801561036d5780601f106103425761010080835404028352916020019161036d565b820191906000526020600020905b81548152906001019060200180831161035057829003601f168201915b505050505081525050815260200190600101906102ad565b50505050905090565b600080fd5b600080fd5b600060ff82169050919050565b6103ae81610398565b81146103b957600080fd5b50565b6000813590506103cb816103a5565b92915050565b600080fd5b600080fd5b600080fd5b60008083601f8401126103f6576103f56103d1565b5b8235905067ffffffffffffffff811115610413576104126103d6565b5b60208301915083600182028301111561042f5761042e6103db565b5b9250929050565b60008060006040848603121561044f5761044e61038e565b5b600061045d868287016103bc565b935050602084013567ffffffffffffffff81111561047e5761047d610393565b5b61048a868287016103e0565b92509250509250925092565b6000819050919050565b6104a981610496565b82525050565b60006020820190506104c460008301846104a0565b92915050565b6104d381610496565b81146104de57600080fd5b50565b6000813590506104f0816104ca565b92915050565b60006020828403121561050c5761050b61038e565b5b600061051a848285016104e1565b91505092915050565b600081519050919050565b600082825260208201905092915050565b60005b8381101561055d578082015181840152602081019050610542565b60008484015250505050565b6000601f19601f8301169050919050565b600061058582610523565b61058f818561052e565b935061059f81856020860161053f565b6105a881610569565b840191505092915050565b60006060820190506105c860008301866104a0565b6105d560208301856104a0565b81810360408301526105e7818461057a565b9050949350505050565b600081519050919050565b600082825260208201905092915050565b6000819050602082019050919050565b61062681610496565b82525050565b600082825260208201905092915050565b600061064882610523565b610652818561062c565b935061066281856020860161053f565b61066b81610569565b840191505092915050565b600060608301600083015161068e600086018261061d565b5060208301516106a1602086018261061d565b50604083015184820360408601526106b9828261063d565b9150508091505092915050565b60006106d28383610676565b905092915050565b6000602082019050919050565b60006106f2826105f1565b6106fc81856105fc565b93508360208202850161070e8561060d565b8060005b8581101561074a578484038952815161072b85826106c6565b9450610736836106da565b925060208a01995050600181019050610712565b50829750879550505050505092915050565b6000602082019050818103600083015261077681846106e7565b905092915050565b7f4e487b7100000000000000000000000000000000000000000000000000000000600052601160045260246000fd5b60006107b882610496565b91506107c383610496565b92508282019050808211156107db576107da61077e565b5b92915050565b7f4e487b7100000000000000000000000000000000000000000000000000000000600052604160045260246000fd5b7f4e487b7100000000000000000000000000000000000000000000000000000000600052602260045260246000fd5b6000600282049050600182168061085757607f821691505b60208210810361086a57610869610810565b5b50919050565b60008190508160005260206000209050919050565b60006020601f8301049050919050565b60008160020a8302905092915050565b6000600883026108d57fffffffffffffffffffffffffffffffffffffffffffffffffffffffffffffffff82610895565b6108df8683610895565b95508019841693508086168417925050509392505050565b6000819050919050565b600061091c61091761091284610496565b6108f7565b610496565b9050919050565b6000819050919050565b61093683610901565b61094a61094282610923565b8484546108a5565b825550505050565b600090565b61095f610952565b61096a81848461092d565b505050565b5b8181101561098e57610983600082610957565b600181019050610970565b5050565b601f8211156109d3576109a481610870565b6109ad84610885565b810160208510156109bc578190505b6109d06109c885610885565b83018261096f565b50505b505050565b60008160020a8304905092915050565b60006109f9600019846008026109d8565b1980831691505092915050565b6000610a1283836109e8565b9150826002028217905092915050565b610a2b82610523565b67ffffffffffffffff811115610a4457610a436107e1565b5b610a4e825461083f565b610a59828285610992565b600060209050601f831160018114610a8c5760008415610a7a578287015190505b610a848582610a06565b865550610aec565b601f198416610a9a86610870565b60005b82811015610ac257848901518255600182019150602085019450602081019050610a9d565b86831015610adf5784890151610adb601f8916826109e8565b8355505b6001600288020188555050505b50505050505056fea2646970667358221220e5ef74c9f62f6b7c5a3d1baa85015e09f0e43eff6b127a9005f606922ff2c73864736f6c63430008140033",
  "immutableReferences": {},
  "source": "// SPDX-License-Identifier: MIT\npragma solidity ^0.8.7;\n\ncontract StudentListStorage {\n\n\n  struct Student {\n    uint id;\n    uint age;\n    string username;\n  }\n\n  Student[] public studentList;\n\n  function addList(uint8 _age, string calldata _username) public returns(uint) {\n    uint length = studentList.length;\n    length += 1;\n    Student memory s = Student(length, _age, _username);\n    studentList.push(s);\n    return length;\n  }\n\n  function getList() public view returns(Student[] memory) {\n    return studentList;\n  }\n\n}\n",
  "sourcePath": "/Users/xiaoran/sites/web/web3/react-exchange-full/react-exchange/contracts/StudentListStorage.sol",
  "compiler": {
    "name": "solc",
    "version": "0.8.20+commit.a1b79de6.Emscripten.clang"
  },
  "schemaVersion": "3.4.14",
  "updatedAt": "2023-08-04T08:50:46.989Z",
  "networkType": "ethereum",
  "devdoc": {
    "kind": "dev",
    "methods": {},
    "version": 1
  },
  "userdoc": {
    "kind": "user",
    "methods": {},
    "version": 1
  }
}